{
  "transactions": [
    {
      "hash": "0x28cd40d92ee958368b0d66d089903409efe60a362b0fbdde06c53e9cf7f4cf2a",
      "transactionType": "CALL",
      "contractName": null,
      "contractAddress": "0x3fbfefdd669f8a2066e85b03b3821700385d594d",
      "function": "mint(address,uint256)",
      "arguments": [
        "0x2B2C5A226CA30A72ec645817a656E7475b223417",
        "1000000000"
      ],
      "transaction": {
        "from": "0x22c48cc08617c465cc7fa23acae1e4eddfb7f519",
        "to": "0x3fbfefdd669f8a2066e85b03b3821700385d594d",
        "gas": "0x12435",
        "value": "0x0",
        "input": "0x40c10f190000000000000000000000002b2c5a226ca30a72ec645817a656e7475b223417000000000000000000000000000000000000000000000000000000003b9aca00",
        "nonce": "0x22",
        "chainId": "0xaa36a7"
      },
      "additionalContracts": [],
      "isFixedGasLimit": false
    },
    {
      "hash": "0xa8181e0e8bfca6e09d3eeadebb9cef23319f4ead9af335cd9f03d6485c898c47",
      "transactionType": "CALL",
      "contractName": null,
      "contractAddress": "0x19e86f201f2645afbb6f7b8c0ba2162dbbcf3533",
      "function": "setAttack(bool)",
      "arguments": [
        "false"
      ],
      "transaction": {
        "from": "0x22c48cc08617c465cc7fa23acae1e4eddfb7f519",
        "to": "0x19e86f201f2645afbb6f7b8c0ba2162dbbcf3533",
        "gas": "0x8a15",
        "value": "0x0",
        "input": "0x3c0376f50000000000000000000000000000000000000000000000000000000000000000",
        "nonce": "0x23",
        "chainId": "0xaa36a7"
      },
      "additionalContracts": [],
      "isFixedGasLimit": false
    }
  ],
  "receipts": [
    {
      "status": "0x1",
      "cumulativeGasUsed": "0x48c75a",
      "logs": [
        {
          "address": "0x3fbfefdd669f8a2066e85b03b3821700385d594d",
          "topics": [
            "0xddf252ad1be2c89b69c2b068fc378daa952ba7f163c4a11628f55a4df523b3ef",
            "0x0000000000000000000000000000000000000000000000000000000000000000",
            "0x0000000000000000000000002b2c5a226ca30a72ec645817a656e7475b223417"
          ],
          "data": "0x000000000000000000000000000000000000000000000000000000003b9aca00",
          "blockHash": "0x6b8250ced237d77541821591b15a40050783485f4f4cd9c1334beb5cfed0732a",
          "blockNumber": "0x912687",
          "blockTimestamp": "0x690177b4",
          "transactionHash": "0x28cd40d92ee958368b0d66d089903409efe60a362b0fbdde06c53e9cf7f4cf2a",
          "transactionIndex": "0x3a",
          "logIndex": "0x44",
          "removed": false
        }
      ],
      "logsBloom": "0x00000000000000000000000000000000000000000000000000000000000000000000000000000000000000000000000000000000000000000000000000000200000000000000000000000008000000000000000000000000000000200000000000000000020000000000000000000800000001000000000002000210000000000000000000000000000000000000000000000000000000000000000000000000000000000000000000000000000000000000000000000000000000000000000000000002000000080000000000000000000000000000000000000000000020000000000000000000000000000000000000000000000000000000000000000000",
      "type": "0x2",
      "transactionHash": "0x28cd40d92ee958368b0d66d089903409efe60a362b0fbdde06c53e9cf7f4cf2a",
      "transactionIndex": "0x3a",
      "blockHash": "0x6b8250ced237d77541821591b15a40050783485f4f4cd9c1334beb5cfed0732a",
      "blockNumber": "0x912687",
      "gasUsed": "0xd38f",
      "effectiveGasPrice": "0xf4249",
      "from": "0x22c48cc08617c465cc7fa23acae1e4eddfb7f519",
      "to": "0x3fbfefdd669f8a2066e85b03b3821700385d594d",
      "contractAddress": null
    },
    {
      "status": "0x1",
      "cumulativeGasUsed": "0x4925c5",
      "logs": [],
      "logsBloom": "0x00000000000000000000000000000000000000000000000000000000000000000000000000000000000000000000000000000000000000000000000000000000000000000000000000000000000000000000000000000000000000000000000000000000000000000000000000000000000000000000000000000000000000000000000000000000000000000000000000000000000000000000000000000000000000000000000000000000000000000000000000000000000000000000000000000000000000000000000000000000000000000000000000000000000000000000000000000000000000000000000000000000000000000000000000000000",
      "type": "0x2",
      "transactionHash": "0xa8181e0e8bfca6e09d3eeadebb9cef23319f4ead9af335cd9f03d6485c898c47",
      "transactionIndex": "0x3b",
      "blockHash": "0x6b8250ced237d77541821591b15a40050783485f4f4cd9c1334beb5cfed0732a",
      "blockNumber": "0x912687",
      "gasUsed": "0x5e6b",
      "effectiveGasPrice": "0xf4249",
      "from": "0x22c48cc08617c465cc7fa23acae1e4eddfb7f519",
      "to": "0x19e86f201f2645afbb6f7b8c0ba2162dbbcf3533",
      "contractAddress": null
    }
  ],
  "libraries": [],
  "pending": [],
  "returns": {},
  "timestamp": 1761703860,
  "chain": 11155111,
  "commit": "c76057d"
}