{
  "transactions": [
    {
      "hash": "0xf16ff979bbb9cc62fd3fe817b158905fab128593e730931460bd201d5e5886d9",
      "transactionType": "CALL",
      "contractName": null,
      "contractAddress": "0x3fbfefdd669f8a2066e85b03b3821700385d594d",
      "function": "mint(address,uint256)",
      "arguments": [
        "0x2B2C5A226CA30A72ec645817a656E7475b223417",
        "1000000000"
      ],
      "transaction": {
        "from": "0x22c48cc08617c465cc7fa23acae1e4eddfb7f519",
        "to": "0x3fbfefdd669f8a2066e85b03b3821700385d594d",
        "gas": "0xd3b6",
        "value": "0x0",
        "input": "0x40c10f190000000000000000000000002b2c5a226ca30a72ec645817a656e7475b223417000000000000000000000000000000000000000000000000000000003b9aca00",
        "nonce": "0x26",
        "chainId": "0xaa36a7"
      },
      "additionalContracts": [],
      "isFixedGasLimit": false
    },
    {
      "hash": "0x7d2f3bcd53c27a14f0fc70cc23fca099fa382f29518fc15dfbb4f44772fb9c1d",
      "transactionType": "CALL",
      "contractName": null,
      "contractAddress": "0x19e86f201f2645afbb6f7b8c0ba2162dbbcf3533",
      "function": "setAttack(bool)",
      "arguments": [
        "false"
      ],
      "transaction": {
        "from": "0x22c48cc08617c465cc7fa23acae1e4eddfb7f519",
        "to": "0x19e86f201f2645afbb6f7b8c0ba2162dbbcf3533",
        "gas": "0x9582",
        "value": "0x0",
        "input": "0x3c0376f50000000000000000000000000000000000000000000000000000000000000000",
        "nonce": "0x27",
        "chainId": "0xaa36a7"
      },
      "additionalContracts": [],
      "isFixedGasLimit": false
    }
  ],
  "receipts": [],
  "libraries": [],
  "pending": [
    "0xf16ff979bbb9cc62fd3fe817b158905fab128593e730931460bd201d5e5886d9",
    "0x7d2f3bcd53c27a14f0fc70cc23fca099fa382f29518fc15dfbb4f44772fb9c1d"
  ],
  "returns": {},
  "timestamp": 1761714425,
  "chain": 11155111,
  "commit": "9d792db"
}