{
  "transactions": [
    {
      "hash": "0xa8a281484d682a4c3d5ad6a06b79e6091b99b6f3cea63fce9b68730d7991a85f",
      "transactionType": "CREATE",
      "contractName": "PostCheckedDelegationContract",
      "contractAddress": "0x70a160fd209f0c765e76f316b852a314c0f07591",
      "function": null,
      "arguments": null,
      "transaction": {
        "from": "0x25987fcae1e17cd6cd01b1d065782370da085c41",
        "gas": "0xd545e",
        "value": "0x0",
        "input": "0x608060405234601c57600e6020565b610b2e61002b8239610b2e90f35b6026565b60405190565b5f80fdfe60806040526004361015610010575b005b61001a5f35610039565b806315876ea8146100345763760f2a0b0361000e57610498565b610439565b60e01c90565b60405190565b5f80fd5b5f80fd5b5f80fd5b601f801991011690565b634e487b7160e01b5f52604160045260245ffd5b9061007990610051565b810190811067ffffffffffffffff82111761009357604052565b61005b565b906100ab6100a461003f565b928361006f565b565b67ffffffffffffffff81116100c55760208091020190565b61005b565b5f80fd5b5f80fd5b5f80fd5b60018060a01b031690565b6100ea906100d6565b90565b6100f6816100e1565b036100fd57565b5f80fd5b9050359061010e826100ed565b565b5f80fd5b67ffffffffffffffff81116101325761012e602091610051565b0190565b61005b565b90825f939282370152565b9092919261015761015282610114565b610098565b938185526020850190828401116101735761017192610137565b565b610110565b9080601f830112156101965781602061019393359101610142565b90565b61004d565b90565b6101a78161019b565b036101ae57565b5f80fd5b905035906101bf8261019e565b565b919091606081840312610226576101d86060610098565b926101e5815f8401610101565b5f85015260208201359167ffffffffffffffff83116102215761020d8261021a948301610178565b60208601526040016101b2565b6040830152565b6100d2565b6100ce565b92919061023f61023a826100ad565b610098565b93818552602080860192028101918383116102965781905b838210610265575050505050565b813567ffffffffffffffff81116102915760209161028687849387016101c1565b815201910190610257565b61004d565b6100ca565b9080601f830112156102b9578160206102b69335910161022b565b90565b61004d565b67ffffffffffffffff81116102d65760208091020190565b61005b565b600311156102e557565b5f80fd5b905035906102f6826102db565b565b91906080838203126103565761034f906103126080610098565b9361031f825f83016101b2565b5f8601526103308260208301610101565b602086015261034282604083016102e9565b60408601526060016101b2565b6060830152565b6100ce565b9092919261037061036b826102be565b610098565b9381855260806020860192028301928184116103af57915b8383106103955750505050565b60206080916103a484866102f8565b815201920191610388565b6100ca565b9080601f830112156103d2578160206103cf9335910161035b565b90565b61004d565b91909160408184031261042f575f81013567ffffffffffffffff811161042a578361040391830161029b565b92602082013567ffffffffffffffff81116104255761042292016103b4565b90565b610049565b610049565b610045565b5f0190565b61044d6104473660046103d7565b906104c1565b61045561003f565b8061045f81610434565b0390f35b90602082820312610493575f82013567ffffffffffffffff811161048e5761048b920161029b565b90565b610049565b610045565b6104ab6104a6366004610463565b6104d5565b6104b361003f565b806104bd81610434565b0390f35b906104ce6104d3926105ad565b610808565b565b6104de906105ad565b565b90565b90565b6104fa6104f56104ff926104e0565b6104e3565b61019b565b90565b600161050e910161019b565b90565b5190565b634e487b7160e01b5f52603260045260245ffd5b9061053382610511565b811015610544576020809102010190565b610515565b61055390516100e1565b90565b610560905161019b565b90565b9061057561057083610114565b610098565b918252565b606090565b3d5f1461059a5761058f3d610563565b903d5f602084013e5b565b6105a261057a565b90610598565b151590565b6105b65f6104e6565b5b806105d26105cc6105c785610511565b61019b565b9161019b565b1015610661576106335f806105f3816105ec878790610529565b5101610549565b61060a6040610603888890610529565b5101610556565b6020610617888890610529565b51015190602082019151925af161062c61057f565b50156105a8565b6106455761064090610502565b6105b7565b5f6317f2c34560e31b81528061065d60048201610434565b0390fd5b5050565b5190565b9061067382610665565b811015610684576020809102010190565b610515565b634e487b7160e01b5f52602160045260245ffd5b600311156106a757565b610689565b906106b68261069d565b565b6106c290516106ac565b90565b634e487b7160e01b5f52601160045260245ffd5b6106e86106ee9193929361019b565b9261019b565b916106fa83820261019b565b92818404149015171561070957565b6106c5565b61071d6107239193929361019b565b9261019b565b820180921161072e57565b6106c5565b61074761074261074c926100d6565b6104e3565b6100d6565b90565b61075890610733565b90565b6107649061074f565b90565b61077090610733565b90565b61077c90610767565b90565b60e01b90565b905051906107928261019e565b565b906020828203126107ad576107aa915f01610785565b90565b610045565b6107bb906100e1565b9052565b91906107d2905f602085019401906107b2565b565b6107dc61003f565b3d5f823e3d90fd5b6107ed90610733565b90565b6107f9906107e4565b90565b61080590610767565b90565b906108125f6104e6565b915b8261082f61082961082484610665565b61019b565b9161019b565b1015610af357610840818490610669565b519261084e604085016106b8565b61086061085a5f6106ac565b916106ac565b1480610aaf575b5f14610889575f633bd1829760e11b81528061088560048201610434565b0390fd5b610895604085016106b8565b6108a86108a260016106ac565b916106ac565b14806109fb575b5f146108df576108db6108c460208601610549565b5f918291635dace77360e11b8352600483016107bf565b0390fd5b9091926108ee604082016106b8565b6109016108fb60026106ac565b916106ac565b1480610947575b61091d575061091690610502565b9190610814565b61092c60206109439201610549565b5f918291630523fa9560e31b8352600483016107bf565b0390fd5b50610992602061096861096361095e838601610549565b6107f0565b6107fc565b6370a0823190610987339261097b61003f565b9586948593849361077f565b8352600483016107bf565b03915afa9081156109f6575f916109c8575b506109c16109bb6109b65f8501610556565b61019b565b9161019b565b1415610908565b6109e9915060203d81116109ef575b6109e1818361006f565b810190610794565b5f6109a4565b503d6109d7565b6107d4565b50610a466020610a1c610a17610a12838901610549565b61075b565b610773565b6370a0823190610a3b3392610a2f61003f565b9586948593849361077f565b8352600483016107bf565b03915afa908115610aaa575f91610a7c575b50610a75610a6f610a6a5f8801610556565b61019b565b9161019b565b14156108af565b610a9d915060203d8111610aa3575b610a95818361006f565b810190610794565b5f610a58565b503d610a8b565b6107d4565b50610ad13331610acb610ac460608801610556565b3a906106d9565b9061070e565b610aed610ae7610ae25f8801610556565b61019b565b9161019b565b10610867565b50905056fea26469706673582212207c1555169803081bf9b50c984c2201c64259e1911dde40da576fb8aaebae895c64736f6c634300081e0033",
        "nonce": "0x33",
        "chainId": "0xaa36a7"
      },
      "additionalContracts": [],
      "isFixedGasLimit": false
    },
    {
      "hash": "0x464b41da692cad535248be54abee034569718c85ec4e63a1e6d4715962fba53c",
      "transactionType": "CREATE",
      "contractName": "Drainer",
      "contractAddress": "0x1a1d13c5bebad7d210a2d1cb68d454f098aaacba",
      "function": null,
      "arguments": null,
      "transaction": {
        "from": "0x25987fcae1e17cd6cd01b1d065782370da085c41",
        "gas": "0x66304",
        "value": "0x2386f26fc10000",
        "input": "0x6080604052600a6097565b6010601e565b61046a6100a3823961046a90f35b60405190565b5f1b90565b90603860018060a01b03916024565b9181191691161790565b60018060a01b031690565b90565b605f605b6063926042565b604d565b6042565b90565b606d906050565b90565b6077906066565b90565b90565b90608d60896093926070565b607a565b82546029565b9055565b60a0336001607d565b56fe60806040526004361015610013575b61019f565b61001d5f3561004c565b80630a3b0a4f146100475780632e1a7d4d1461004257634e71d92d0361000e57610176565b610134565b6100bd565b60e01c90565b60405190565b5f80fd5b5f80fd5b60018060a01b031690565b61007490610060565b90565b6100808161006b565b0361008757565b5f80fd5b9050359061009882610077565b565b906020828203126100b3576100b0915f0161008b565b90565b61005c565b5f0190565b346100eb576100d56100d036600461009a565b61023f565b6100dd610052565b806100e7816100b8565b0390f35b610058565b90565b6100fc816100f0565b0361010357565b5f80fd5b90503590610114826100f3565b565b9060208282031261012f5761012c915f01610107565b90565b61005c565b346101625761014c610147366004610116565b61032a565b610154610052565b8061015e816100b8565b0390f35b610058565b5f91031261017157565b61005c565b610181366004610167565b6101896103c4565b610191610052565b8061019b816100b8565b0390f35b5f80fd5b90565b6101ba6101b56101bf92610060565b6101a3565b610060565b90565b6101cb906101a6565b90565b6101d7906101c2565b90565b906101e4906101ce565b5f5260205260405f2090565b5f1b90565b9061020160ff916101f0565b9181191691161790565b151590565b6102199061020b565b90565b90565b9061023461022f61023b92610210565b61021c565b82546101f5565b9055565b6102549061024f6001915f6101da565b61021f565b565b5f1c90565b60018060a01b031690565b61027261027791610256565b61025b565b90565b6102849054610266565b90565b1561028e57565b5f80fd5b6102c0906102bb336102b56102af6102aa600161027a565b61006b565b9161006b565b14610287565b6102f6565b565b6102cb906101a6565b90565b6102d7906102c2565b90565b6102e3906101c2565b90565b6102ee610052565b3d5f823e3d90fd5b5f8080809361030c610307336102ce565b6102da565b828215610321575bf11561031c57565b6102e6565b506108fc610314565b61033390610292565b565b60ff1690565b61034761034c91610256565b610335565b90565b610359905461033b565b90565b90565b61037361036e6103789261035c565b6101a3565b6100f0565b90565b634e487b7160e01b5f52601160045260245ffd5b61039e6103a4919392936100f0565b926100f0565b916103b08382026100f0565b9281840414901517156103bf57565b61037b565b6103e06103da6103d55f33906101da565b61034f565b1561020b565b5f1461042f575f8080806103fb6103f6336102ce565b6102da565b61040f34610409600261035f565b9061038f565b90828215610426575bf115610421575b565b6102e6565b506108fc610418565b61041f56fea264697066735822122006d69acc285d299e51adaa2dc811da36a9c4ee3da711685c515b24fbd3469f6464736f6c634300081e0033",
        "nonce": "0x34",
        "chainId": "0xaa36a7"
      },
      "additionalContracts": [],
      "isFixedGasLimit": false
    },
    {
      "hash": "0xfb38572768e0726aba25de41b6d68971adeda4e4bf23fb59fc26f9e0215999b4",
      "transactionType": "CALL",
      "contractName": null,
      "contractAddress": "0x31dcc59ac89ecc77a8f9f2b3a5a8c39eb2cf1233",
      "function": "executePostChecked((address,bytes,uint256)[],(uint256,address,uint8,uint256)[])",
      "arguments": [
        "[(0x1a1D13c5BeBAd7d210A2D1cB68D454F098AAAcBA, 0x4e71d92d, 1000000000000000)]",
        "[(51995696007609108, 0x0000000000000000000000000000000000000000, 0, 105000)]"
      ],
      "transaction": {
        "from": "0x31dcc59ac89ecc77a8f9f2b3a5a8c39eb2cf1233",
        "to": "0x31dcc59ac89ecc77a8f9f2b3a5a8c39eb2cf1233",
        "gas": "0x151bf",
        "value": "0x38d7ea4c68000",
        "input": "0x15876ea800000000000000000000000000000000000000000000000000000000000000400000000000000000000000000000000000000000000000000000000000000120000000000000000000000000000000000000000000000000000000000000000100000000000000000000000000000000000000000000000000000000000000200000000000000000000000001a1d13c5bebad7d210a2d1cb68d454f098aaacba000000000000000000000000000000000000000000000000000000000000006000000000000000000000000000000000000000000000000000038d7ea4c6800000000000000000000000000000000000000000000000000000000000000000044e71d92d00000000000000000000000000000000000000000000000000000000000000000000000000000000000000000000000000000000000000000000000100000000000000000000000000000000000000000000000000b8b9cf5e61fb14000000000000000000000000000000000000000000000000000000000000000000000000000000000000000000000000000000000000000000000000000000000000000000000000000000000000000000000000000000000000000000019a28",
        "nonce": "0x29",
        "chainId": "0xaa36a7",
        "authorizationList": [
          {
            "chainId": "0xaa36a7",
            "address": "0x70a160fd209f0c765e76f316b852a314c0f07591",
            "nonce": "0x2a",
            "yParity": "0x0",
            "r": "0xef2b552ce413fcce8cc69e526573892dcae3d791e5688a77e2b24a4ea0fed41b",
            "s": "0x434ddfbfb351e1b327fa93f0db779ad78eed66f04d1648b71f4a8731390d1923"
          }
        ]
      },
      "additionalContracts": [],
      "isFixedGasLimit": false
    }
  ],
  "receipts": [
    {
      "status": "0x1",
      "cumulativeGasUsed": "0xa1f89e",
      "logs": [],
      "logsBloom": "0x00000000000000000000000000000000000000000000000000000000000000000000000000000000000000000000000000000000000000000000000000000000000000000000000000000000000000000000000000000000000000000000000000000000000000000000000000000000000000000000000000000000000000000000000000000000000000000000000000000000000000000000000000000000000000000000000000000000000000000000000000000000000000000000000000000000000000000000000000000000000000000000000000000000000000000000000000000000000000000000000000000000000000000000000000000000",
      "type": "0x2",
      "transactionHash": "0xa8a281484d682a4c3d5ad6a06b79e6091b99b6f3cea63fce9b68730d7991a85f",
      "transactionIndex": "0x32",
      "blockHash": "0x8fdcb38a33e3b470490669ea18e4bf1791379ce8eb81a856d514fd9081f55bdb",
      "blockNumber": "0x93211a",
      "gasUsed": "0xa40e6",
      "effectiveGasPrice": "0xf4249",
      "from": "0x25987fcae1e17cd6cd01b1d065782370da085c41",
      "to": null,
      "contractAddress": "0x70a160fd209f0c765e76f316b852a314c0f07591"
    },
    {
      "status": "0x1",
      "cumulativeGasUsed": "0x864ecf",
      "logs": [],
      "logsBloom": "0x00000000000000000000000000000000000000000000000000000000000000000000000000000000000000000000000000000000000000000000000000000000000000000000000000000000000000000000000000000000000000000000000000000000000000000000000000000000000000000000000000000000000000000000000000000000000000000000000000000000000000000000000000000000000000000000000000000000000000000000000000000000000000000000000000000000000000000000000000000000000000000000000000000000000000000000000000000000000000000000000000000000000000000000000000000000",
      "type": "0x2",
      "transactionHash": "0x464b41da692cad535248be54abee034569718c85ec4e63a1e6d4715962fba53c",
      "transactionIndex": "0x1e",
      "blockHash": "0xff2a7b1af0d338ebab5d44a8c236f5292c4d4f1ecbc2e6eeda4608a984e8f3c2",
      "blockNumber": "0x93211b",
      "gasUsed": "0x4e9b5",
      "effectiveGasPrice": "0xf4249",
      "from": "0x25987fcae1e17cd6cd01b1d065782370da085c41",
      "to": null,
      "contractAddress": "0x1a1d13c5bebad7d210a2d1cb68d454f098aaacba"
    },
    {
      "status": "0x1",
      "cumulativeGasUsed": "0xdd542a",
      "logs": [],
      "logsBloom": "0x00000000000000000000000000000000000000000000000000000000000000000000000000000000000000000000000000000000000000000000000000000000000000000000000000000000000000000000000000000000000000000000000000000000000000000000000000000000000000000000000000000000000000000000000000000000000000000000000000000000000000000000000000000000000000000000000000000000000000000000000000000000000000000000000000000000000000000000000000000000000000000000000000000000000000000000000000000000000000000000000000000000000000000000000000000000",
      "type": "0x4",
      "transactionHash": "0xfb38572768e0726aba25de41b6d68971adeda4e4bf23fb59fc26f9e0215999b4",
      "transactionIndex": "0x61",
      "blockHash": "0x5c95a46f1573aabfc9c472473d7d03d1cfe7bd63bfc53707a9b7b83fb7ca0aef",
      "blockNumber": "0x93211c",
      "gasUsed": "0xf486",
      "effectiveGasPrice": "0xf4249",
      "from": "0x31dcc59ac89ecc77a8f9f2b3a5a8c39eb2cf1233",
      "to": "0x31dcc59ac89ecc77a8f9f2b3a5a8c39eb2cf1233",
      "contractAddress": null
    }
  ],
  "libraries": [],
  "pending": [],
  "returns": {},
  "timestamp": 1763302946,
  "chain": 11155111,
  "commit": "f3c29ef"
}